{
  "abi": [
    {
      "type": "constructor",
      "inputs": [
        {
          "name": "treasuryAddress",
          "type": "address",
          "internalType": "address"
        },
        {
          "name": "_entryPoint",
          "type": "address",
          "internalType": "address"
        },
        {
          "name": "_feeRegistry",
          "type": "address",
          "internalType": "address"
        },
        {
          "name": "_uniswapRouter",
          "type": "address",
          "internalType": "address"
        },
        {
          "name": "_reputationRegistry",
          "type": "address",
          "internalType": "address"
        }
      ],
      "stateMutability": "nonpayable"
    },
    {
      "type": "function",
      "name": "deployWallet",
      "inputs": [],
      "outputs": [
        {
          "name": "",
          "type": "address",
          "internalType": "address"
        }
      ],
      "stateMutability": "payable"
    },
    {
      "type": "function",
      "name": "owner",
      "inputs": [],
      "outputs": [
        {
          "name": "",
          "type": "address",
          "internalType": "address"
        }
      ],
      "stateMutability": "view"
    },
    {
      "type": "function",
      "name": "pause",
      "inputs": [],
      "outputs": [],
      "stateMutability": "nonpayable"
    },
    {
      "type": "function",
      "name": "paused",
      "inputs": [],
      "outputs": [
        {
          "name": "",
          "type": "bool",
          "internalType": "bool"
        }
      ],
      "stateMutability": "view"
    },
    {
      "type": "function",
      "name": "renounceOwnership",
      "inputs": [],
      "outputs": [],
      "stateMutability": "nonpayable"
    },
    {
      "type": "function",
      "name": "transferOwnership",
      "inputs": [
        {
          "name": "newOwner",
          "type": "address",
          "internalType": "address"
        }
      ],
      "outputs": [],
      "stateMutability": "nonpayable"
    },
    {
      "type": "function",
      "name": "unpause",
      "inputs": [],
      "outputs": [],
      "stateMutability": "nonpayable"
    },
    {
      "type": "event",
      "name": "OwnershipTransferred",
      "inputs": [
        {
          "name": "previousOwner",
          "type": "address",
          "indexed": true,
          "internalType": "address"
        },
        {
          "name": "newOwner",
          "type": "address",
          "indexed": true,
          "internalType": "address"
        }
      ],
      "anonymous": false
    },
    {
      "type": "event",
      "name": "Paused",
      "inputs": [
        {
          "name": "account",
          "type": "address",
          "indexed": false,
          "internalType": "address"
        }
      ],
      "anonymous": false
    },
    {
      "type": "event",
      "name": "Unpaused",
      "inputs": [
        {
          "name": "account",
          "type": "address",
          "indexed": false,
          "internalType": "address"
        }
      ],
      "anonymous": false
    },
    {
      "type": "event",
      "name": "WalletDeployed",
      "inputs": [
        {
          "name": "walletAddress",
          "type": "address",
          "indexed": true,
          "internalType": "address"
        },
        {
          "name": "owner",
          "type": "address",
          "indexed": true,
          "internalType": "address"
        }
      ],
      "anonymous": false
    },
    {
      "type": "error",
      "name": "EnforcedPause",
      "inputs": []
    },
    {
      "type": "error",
      "name": "ExpectedPause",
      "inputs": []
    },
    {
      "type": "error",
      "name": "OwnableInvalidOwner",
      "inputs": [
        {
          "name": "owner",
          "type": "address",
          "internalType": "address"
        }
      ]
    },
    {
      "type": "error",
      "name": "OwnableUnauthorizedAccount",
      "inputs": [
        {
          "name": "account",
          "type": "address",
          "internalType": "address"
        }
      ]
    },
    {
      "type": "error",
      "name": "SHFactory_FundTransferFailed",
      "inputs": []
    }
  ],
  "bytecode": {
    "object": "0x6101203461012357601f612f4638819003918201601f19168301916001600160401b038311848410176101275780849260a094604052833981010312610123576100488161013b565b6100546020830161013b565b916100616040820161013b565b9061007a60806100736060840161013b565b920161013b565b913315610110575f8054336001600160a01b0319821681178355604051979290916001600160a01b0316907f8be0079c531659141344cd1fd0a4f28419497f9722a3daafe3b4186f6b6457e09080a360c05260805260e0526101005260a052612df690816101508239608051816102b3015260a05181505060c0518161023b015260e051816102630152610100518161028b0152f35b631e4fbdf760e01b5f525f60045260245ffd5b5f80fd5b634e487b7160e01b5f52604160045260245ffd5b51906001600160a01b03821682036101235756fe60806040526004361015610011575f80fd5b5f3560e01c80633f4ba83a146103a657806353535db9146101f55780635c975abb146101d1578063715018a61461017a5780638456cb591461011a5780638da5cb5b146100f35763f2fde38b14610066575f80fd5b346100ef5760203660031901126100ef576004356001600160a01b038116908190036100ef57610094610412565b80156100dc575f80546001600160a01b03198116831782556001600160a01b0316907f8be0079c531659141344cd1fd0a4f28419497f9722a3daafe3b4186f6b6457e09080a3005b631e4fbdf760e01b5f525f60045260245ffd5b5f80fd5b346100ef575f3660031901126100ef575f546040516001600160a01b039091168152602090f35b346100ef575f3660031901126100ef57610132610412565b61013a610438565b5f805460ff60a01b1916600160a01b1790556040513381527f62e78cea01bee320cd4e420270b5ea74000d11b0c9f74754ebdbfc544b05a25890602090a1005b346100ef575f3660031901126100ef57610192610412565b5f80546001600160a01b0319811682556001600160a01b03167f8be0079c531659141344cd1fd0a4f28419497f9722a3daafe3b4186f6b6457e08280a3005b346100ef575f3660031901126100ef57602060ff5f5460a01c166040519015158152f35b5f3660031901126100ef57610208610438565b60405161296b8082019082821067ffffffffffffffff8311176103825760a091839161045683393381526001831b5f19017f0000000000000000000000000000000000000000000000000000000000000000811660208301527f0000000000000000000000000000000000000000000000000000000000000000811660408301527f0000000000000000000000000000000000000000000000000000000000000000811660608301527f00000000000000000000000000000000000000000000000000000000000000001660808201520301905ff0801561039b576001600160a01b03165f80808034855af13d15610396573d67ffffffffffffffff81116103825760405190601f8101601f19908116603f0116820167ffffffffffffffff8111838210176103825760405281525f60203d92013e5b156103735760405160209133817ff25144576b87c0db53fd13e964c2b18299ee19d7d44d4b2636144644acff745b5f80a38152f35b635baf37d760e01b5f5260045ffd5b634e487b7160e01b5f52604160045260245ffd5b61033e565b6040513d5f823e3d90fd5b346100ef575f3660031901126100ef576103be610412565b5f5460ff8160a01c16156104035760ff60a01b19165f556040513381527f5db9ee0a495bf2e6ff9c91a7834c1ba4fdd244a5e8aa4e537bd38aeae4b073aa90602090a1005b638dfc202b60e01b5f5260045ffd5b5f546001600160a01b0316330361042557565b63118cdaa760e01b5f523360045260245ffd5b60ff5f5460a01c1661044657565b63d93c066560e01b5f5260045ffdfe6101003461017857601f61296b38819003918201601f19168301916001600160401b0383118484101761017c5780849260a0946040528339810103126101785761004881610190565b61005460208301610190565b9161006160408201610190565b610079608061007260608501610190565b9301610190565b6001600160a01b03909316938415610165575f80546001600160a01b031981168717825560405196916001600160a01b03909116907f8be0079c531659141344cd1fd0a4f28419497f9722a3daafe3b4186f6b6457e09080a360017f9b779b17422d0df92223018b32b4d1fa46e071723d6817e2486d003becc55f005560805260a05260c0526001600160a01b031660e0526127c690816101a582396080518181816101b001526115fd015260a0518181816120ee01526121c1015260c0518181816111a101526123c5015260e0518181816102c101528181610e220152818161168b0152611c170152f35b631e4fbdf760e01b5f525f60045260245ffd5b5f80fd5b634e487b7160e01b5f52604160045260245ffd5b51906001600160a01b03821682036101785756fe6080604052600436101561001a575b3615610018575f80fd5b005b5f3560e01c806317c6a6661461011957806319822f7c146101145780633f4ba83a1461010f57806341976e091461010a578063524667b6146101055780635c975abb14610100578063715018a6146100fb5780638456cb59146100f657806384f4fc6a146100f15780638c8e13b9146100ec5780638da5cb5b146100e7578063a7ccc763146100e2578063b61d27f6146100dd578063eca81817146100d8578063f2fde38b146100d35763f3fef3a30361000e5761094e565b6108c5565b610896565b61082a565b610803565b6107dc565b6106d2565b610558565b6104f8565b6104a1565b61047d565b6103ef565b61028f565b610223565b610174565b610133565b6001600160a01b0381160361012f57565b5f80fd5b3461012f57606036600319011261012f57602061016a6004356101558161011e565b6024356101618161011e565b60443591610dd5565b6040519015158152f35b3461012f57606036600319011261012f5760043567ffffffffffffffff811161012f57610120600319823603011261012f576001600160a01b037f00000000000000000000000000000000000000000000000000000000000000001660443533829003610214575f808080936101f36102109760243590600401611a92565b955af1506101ff61196b565b506040519081529081906020820190565b0390f35b63cf43045d60e01b5f5260045ffd5b3461012f575f36600319011261012f5761023b611b3f565b5f5460ff8160a01c16156102805760ff60a01b19165f556040513381527f5db9ee0a495bf2e6ff9c91a7834c1ba4fdd244a5e8aa4e537bd38aeae4b073aa90602090a1005b638dfc202b60e01b5f5260045ffd5b3461012f57602036600319011261012f576004356102ac8161011e565b604051632630c12f60e01b81526020816004817f00000000000000000000000000000000000000000000000000000000000000006001600160a01b03165afa9182156103915761032d926040925f91610396575b5082516341976e0960e01b81526001600160a01b0390921660048301529092839190829081906024820190565b03916001600160a01b03165afa908115610391575f905f9261035f575b506040805191825260ff929092166020820152f35b9050610383915060403d60401161038a575b61037b8183610a92565b810190610f10565b905f61034a565b503d610371565b610d95565b6103b8915060203d6020116103be575b6103b08183610a92565b810190610d80565b5f610300565b503d6103a6565b6064359065ffffffffffff8216820361012f57565b6084359065ffffffffffff8216820361012f57565b3461012f5760c036600319011261012f5760043561040c8161011e565b6024356104188161011e565b6044359067ffffffffffffffff821161012f573660238301121561012f5781600401359267ffffffffffffffff841161012f573660248560051b8501011161012f57610018936104666103c5565b9161046f6103da565b93602460a435960191610f30565b3461012f575f36600319011261012f57602060ff5f5460a01c166040519015158152f35b3461012f575f36600319011261012f576104b9611b3f565b5f80546001600160a01b0319811682556001600160a01b03167f8be0079c531659141344cd1fd0a4f28419497f9722a3daafe3b4186f6b6457e08280a3005b3461012f575f36600319011261012f57610510611b3f565b610518611bda565b5f805460ff60a01b1916600160a01b1790556040513381527f62e78cea01bee320cd4e420270b5ea74000d11b0c9f74754ebdbfc544b05a25890602090a1005b3461012f57602036600319011261012f576004356105758161011e565b61057d611b3f565b6001600160a01b0381165f8181526003602052604090205490919060ff161561060d576105dd816105b06105e793611b65565b835f5260016020526105c460405f206114a9565b6001600160a01b03165f90815260036020526040902090565b805460ff19169055565b7f2991ab7bfda4556c9e662762b3dfa89a1df391084c4278286d466c1c187e55235f80a2005b63025c0a0560e51b5f5260045ffd5b90602080835192838152019201905f5b8181106106395750505090565b82516001600160e01b03191684526020938401939092019160010161062c565b61010060c06106cf936020845280511515602085015260018060a01b03602082015116604085015265ffffffffffff60408201511660608501526106ac6060820151608086019065ffffffffffff169052565b608081015160a085015260a08101518285015201519160e080820152019061061c565b90565b3461012f57602036600319011261012f576004356106ef8161011e565b606060c06040516106ff81610a71565b5f81525f60208201525f60408201525f838201525f60808201525f60a0820152015260018060a01b03165f52600160205261021060405f206107cb60046040519261074984610a71565b805460ff8116151585526001600160a01b03600882901c16602086015261078c9061077d905b60a81c65ffffffffffff1690565b65ffffffffffff166040860152565b6107b16107a2600183015465ffffffffffff1690565b65ffffffffffff166060860152565b60028101546080850152600381015460a085015201610ab4565b60c082015260405191829182610659565b3461012f575f36600319011261012f575f546040516001600160a01b039091168152602090f35b3461012f57602036600319011261012f57602061016a6004356108258161011e565b6114f8565b3461012f57606036600319011261012f576004356108478161011e565b6024356044359167ffffffffffffffff831161012f573660238401121561012f5782600401359167ffffffffffffffff831161012f57366024848601011161012f5760246100189401916115fa565b3461012f57602036600319011261012f5760206108bd6004356108b88161011e565b61199a565b604051908152f35b3461012f57602036600319011261012f576004356108e28161011e565b6108ea611b3f565b6001600160a01b0316801561093b575f80546001600160a01b03198116831782556001600160a01b0316907f8be0079c531659141344cd1fd0a4f28419497f9722a3daafe3b4186f6b6457e09080a3005b631e4fbdf760e01b5f525f60045260245ffd5b3461012f57604036600319011261012f5760043561096b8161011e565b60243590610977611b3f565b6001600160a01b0316908115610a0c576040516370a0823160e01b8152306004820152602081602481865afa80156103915782915f916109dd575b50106109ce575f5461001892906001600160a01b031690612265565b6309814eeb60e31b5f5260045ffd5b6109ff915060203d602011610a05575b6109f78183610a92565b810190610da0565b5f6109b2565b503d6109ed565b80915047106109ce575f80808093610a3c610a30610a30845460018060a01b031690565b6001600160a01b031690565b5af1610a4661196b565b5015610a4e57005b6376b05fd160e01b5f5260045ffd5b634e487b7160e01b5f52604160045260245ffd5b60e0810190811067ffffffffffffffff821117610a8d57604052565b610a5d565b90601f8019910116810190811067ffffffffffffffff821117610a8d57604052565b60405181548082529092918390610ad260208301915f5260205f2090565b925f905b806007830110610c1b57610b2c945491818110610bfc575b818110610bdd575b818110610bbe575b818110610b9f575b818110610b80575b818110610b61575b818110610b43575b10610b2e575b500383610a92565b565b6001600160e01b03191681526020015f610b24565b602083811b6001600160e01b03191685529093600191019301610b1e565b604083901b6001600160e01b0319168452926001906020019301610b16565b606083901b6001600160e01b0319168452926001906020019301610b0e565b608083901b6001600160e01b0319168452926001906020019301610b06565b60a083901b6001600160e01b0319168452926001906020019301610afe565b60c083901b6001600160e01b0319168452926001906020019301610af6565b6001600160e01b031960e084901b168452926001906020019301610aee565b916008919350610100600191610cca8754610c41838260e01b63ffffffff60e01b169052565b60c081901b6001600160e01b031916602084015260a081901b6001600160e01b0319166040840152608081901b6001600160e01b0319166060840152606081901b6001600160e01b0319166080840152604081901b6001600160e01b03191660a0840152602081901b6001600160e01b03191660c08401526001600160e01b03191660e0830152565b019401920185929391610ad6565b60405190610b2c60e083610a92565b90604051610cf481610a71565b825460ff811615158252600881901c6001600160a01b031660208301529092839160c091610d7b9160049190610d3c90610d2d9061076f565b65ffffffffffff166040870152565b610d61610d52600183015465ffffffffffff1690565b65ffffffffffff166060870152565b60028101546080860152600381015460a086015201610ab4565b910152565b9081602091031261012f57516106cf8161011e565b6040513d5f823e3d90fd5b9081602091031261012f575190565b634e487b7160e01b5f52601160045260245ffd5b91908201809211610dd057565b610daf565b91610e08610e04610dfe610df98660018060a01b03165f52600160205260405f2090565b610ce7565b946114f8565b1590565b610f0957604051632630c12f60e01b8152906020826004817f00000000000000000000000000000000000000000000000000000000000000006001600160a01b03165afa801561039157610e96936020935f92610eea575b50604051637d3b6e7960e11b81526001600160a01b03909116600482015260248101929092529092839190829081906044820190565b03916001600160a01b03165afa90811561039157608091610ec3915f91610ecb575b5060a0840151610dc3565b910151101590565b610ee4915060203d602011610a05576109f78183610a92565b5f610eb8565b610f02919250843d86116103be576103b08183610a92565b905f610e60565b5050505f90565b919082604091031261012f576020825192015160ff8116810361012f5790565b92909493610f3c611b3f565b861580611193575b611184576001600160a01b038416958615611175576001600160a01b0381169788158061116c575b61115d5765ffffffffffff87169165ffffffffffff8416928084101561114e5742101561113f576110699361101561102492610fc2610fbb8b60018060a01b03165f52600360205260405f2090565b5460ff1690565b611131575b6001600160a01b038a165f908152600360205260409020610feb90610e0490610fbb565b61110c575b611005610ffb610cd8565b4297909710158752565b6001600160a01b03166020860152565b65ffffffffffff166040840152565b65ffffffffffff8716606083015260808201525f60a08201526110483684866111dc565b60c08201526001600160a01b0385165f9081526001602052604090206113c7565b5f5b8181106110ae57505060405165ffffffffffff939093168352507f1a0c7065350aa29a653e46009590de456f7e6d37d7dd82d1e0f386141538ea689160209150a3565b6001906111066110f96110d18760018060a01b03165f52600260205260405f2090565b6110e46110df85888a61148a565b61149f565b63ffffffff60e01b165f5260205260405f2090565b805460ff19166001179055565b0161106b565b6001600160a01b038a165f90815260036020526040902061112c906110f9565b610ff0565b61113a8a611b65565b610fc7565b63656ad16760e01b5f5260045ffd5b633b83c71960e21b5f5260045ffd5b633488ec7d60e01b5f5260045ffd5b50831515610f6c565b63c7250f9b60e01b5f5260045ffd5b638ed5eee360e01b5f5260045ffd5b506001600160a01b038681167f00000000000000000000000000000000000000000000000000000000000000009091161415610f44565b6001600160e01b031981160361012f57565b9291909267ffffffffffffffff8411610a8d578360051b90602060405161120582850182610a92565b809681520191810192831161012f57905b82821061122257505050565b602080918335611231816111ca565b815201910190611216565b680100000000000000008211610a8d57805482825580831061125d57505050565b60079081840160031c925f52601c8360205f20019460021b168061129e575b500160031c03905f5b82811061129157505050565b5f82820155600101611285565b5f198501908154905f199060200360031b1c1690555f61127c565b9080519067ffffffffffffffff8211610a8d5760206112e7916112dc848661123c565b01925f5260205f2090565b8160031c915f5b83811061136d57506007198116900380611309575b50505050565b925f935f5b8181106113235750505001555f808080611303565b90919460206113636001926113486113428a5163ffffffff60e01b1690565b60e01c90565b908560021b63ffffffff809160031b9316831b921b19161790565b960192910161130e565b5f5f5b600881106113855750838201556001016112ee565b959060206113be6001926113a3611342865163ffffffff60e01b1690565b908a60021b63ffffffff809160031b9316831b921b19161790565b92019601611370565b600460c0610b2c936113e881511515859060ff801983541691151516179055565b60208101518454604083015160089290921b610100600160a81b0316610100600160d81b03199091161760a89190911b65ffffffffffff60a81b1617845561145961143c606083015165ffffffffffff1690565b600186019065ffffffffffff1665ffffffffffff19825416179055565b6080810151600285015560a08101516003850155015191016112b9565b634e487b7160e01b5f52603260045260245ffd5b919081101561149a5760051b0190565b611476565b356106cf816111ca565b6004905f81555f60018201555f60028201555f60038201550180545f8255806114d0575050565b60070160031c905f5260205f205f5b8281106114eb57505050565b5f828201556001016114df565b6001600160a01b0381165f9081526001602052604090208054919060ff831692831561156357506001015461153b9065ffffffffffff165b65ffffffffffff1690565b4211908115611552575b5061154d5790565b505f90565b61155c915061199a565b155f611545565b9190611582610fbb8360018060a01b03165f52600360205260405f2090565b92836115d9575b50826115b7575b50816115a5575b5061159f5790565b50600190565b6115af915061199a565b15155f611597565b600101549091506115cf9065ffffffffffff16611530565b421115905f611590565b9092506115f09060a81c65ffffffffffff16611530565b421015915f611589565b337f00000000000000000000000000000000000000000000000000000000000000006001600160a01b0316149390929091908415806118eb575b6118dc57611640611bda565b846118c8575b84611787575b915f939184936116616040518094819361195e565b03926001600160a01b03165af161167661196b565b5015610a4e576040516361d027b360e01b81527f00000000000000000000000000000000000000000000000000000000000000006001600160a01b031691602082600481865afa918215610391575f92611766575b5080611754575b6116da575050565b6020600492604051938480926358710f4560e11b82525afa908115610391575f928392839283928392611733575b506001600160a01b03165af161171c61196b565b501561172457565b6320a6318760e21b5f5260045ffd5b61174d91925060203d602011610a05576109f78183610a92565b905f611708565b506001600160a01b03811615156116d2565b61178091925060203d6020116103be576103b08183610a92565b905f6116cb565b9290916001600160a01b035f5c166001600160a01b0381165f908152600160205260409020909390945f5c60401b6001600160e01b031916946117d6866117cf36878661191b565b8588611bf7565b90966001600160e01b031916635d5155ef60e11b81141590816118b7575b5015611888575060038701805497600261180e898b610dc3565b91015410611879576118235f98978998610dc3565b90555b611832610e04826114f8565b611843575b5091935091935061164c565b6105dd8161185361187393611b65565b6001600160a01b0381165f9081526001602052604090206105c4906114a9565b5f611837565b638c224a8160e01b5f5260045ffd5b600390970180545f98899850908082106118a6575050869055611826565b906118b091611951565b9055611826565b629d473b60e21b141590505f6117f4565b5f5c6001600160a01b031615159450611646565b63ac432d0b60e01b5f5260045ffd5b505f546001600160a01b0316331415611634565b67ffffffffffffffff8111610a8d57601f01601f191660200190565b929192611927826118ff565b916119356040519384610a92565b82948184528183011161012f578281602093845f960137010152565b91908203918211610dd057565b908092918237015f815290565b3d15611995573d9061197c826118ff565b9161198a6040519384610a92565b82523d5f602084013e565b606090565b60018060a01b03165f52600160205260405f20604051906119ba82610a71565b805460ff8116151583526001600160a01b03600882901c1660208401526119e4906110159061076f565b611a096119fa600183015465ffffffffffff1690565b65ffffffffffff166060840152565b6002810154916080810192835260c0611a30600460038501549460a0850195865201610ab4565b9101525190519081811015611a48576106cf91611951565b50505f90565b903590601e198136030182121561012f570180359067ffffffffffffffff821161012f5760200191813603831361012f57565b5f805c6001600160a01b031916905d565b611aea917f19457468657265756d205369676e6564204d6573736167653a0a3332000000005f52601c52611ae1603c5f20611adb611ad4610100850185611a4e565b369161191b565b90612595565b909391936125ed565b5f546001600160a01b03838116911603611b0c575050611b08611a81565b5f90565b6001600160a01b0382165f9081526003602052604090205460ff1615611b35576106cf9161234d565b50506106cf600190565b5f546001600160a01b03163303611b5257565b63118cdaa760e01b5f523360045260245ffd5b6001600160a01b03165f8181526001602052604081206004018054909290915b828110611b925750505050565b815f52600260205260405f2090845481101561149a57611bd46105dd600193875f526110e460205f20601c8660021b16908660031c01549060031b1c60e01b90565b01611b85565b60ff5f5460a01c16611be857565b63d93c066560e01b5f5260045ffd5b604051632630c12f60e01b81525f958695909493909290916020816004817f00000000000000000000000000000000000000000000000000000000000000006001600160a01b03165afa908115610391575f91612246575b506001600160a01b0316926001600160e01b031916915f906302f1cf2560e41b84016121ea575b50604485511015806121b3575b612123575b50835190604482101590816120ec575b50611ca35750505050565b93959293632512eca560e11b8203611d24575050602492830151604051637d3b6e7960e11b81525f600482015293840152602090839060449082905afa90811561039157611cf8925f92611d03575b50610dc3565b915b5f808080611303565b611d1d91925060203d602011610a05576109f78183610a92565b905f611cf2565b9293926338ed173960e01b82149081159082826120dc575b80156120cc575b15611df45750916020939185936024611dbb989701519460648101510192604460248501519481810151955f190160051b0101519291611de3575b5015611ddc57505b604051637d3b6e7960e11b81526001600160a01b03909116600482015260248101929092529093849190829081906044820190565b03915afa90811561039157611dd6925f92611d035750610dc3565b91611cfa565b9050611d86565b6318cbafe560e01b1490505f611d7e565b9291505062e8e33760e81b8114806120c1575b15611ec25750506024828101516044808501516064860151608490960151604051637d3b6e7960e11b81526001600160a01b0390941660048501529383019590955290949290602090869081845afa94851561039157611dbb95602094611e74925f92611eaa5750610dc3565b604051637d3b6e7960e11b81526001600160a01b0390951660048601526024850192909252929390928491829081906044820190565b611d1d919250863d8811610a05576109f78183610a92565b63f305d71960e01b8103611f25575050602482810151604493840151604051637d3b6e7960e11b81526001600160a01b03909216600483015291810191909152929160209184919082905afa90811561039157611dd6925f92611d035750610dc3565b939593635d5155ef60e11b8114806120b6575b15611fc9575050602482810151604480850151608486015160a490960151604051637d3b6e7960e11b81526001600160a01b0390941660048501529383019590955294959094909290602090869081845afa94851561039157611fa895602094611e74925f92611eaa5750610dc3565b03915afa90811561039157611fc3925f92611d035750610dc3565b90611cfa565b919291629d473b60e21b1490816120aa575b50611fe8575b5050611cfa565b6024818101516064830151608490930151604051637d3b6e7960e11b81526001600160a01b0390921660048301529181019290925292935091602083604481855afa90811561039157612067935f9261208a575b50602091926040518080968194637d3b6e7960e11b8352600483019190602060408401935f81520152565b03915afa90811561039157612082925f92611d035750610dc3565b905f80611fe1565b602092506120a490833d8511610a05576109f78183610a92565b9161203c565b6084915010155f611fdb565b5060a4821015611f38565b506084821015611e07565b506318cbafe560e01b8414611d43565b50634401edf760e11b8414611d3c565b7f00000000000000000000000000000000000000000000000000000000000000006001600160a01b0390811691161490505f611c98565b909661217a9163a9059cbb60e01b84146121a8575b6323b872dd60e01b841461219d575b604051637d3b6e7960e11b81526001600160a01b038a166004820152602481019190915291602090839081906044820190565b0381875afa90811561039157612196925f92611d035750610dc3565b955f611c88565b506064850151612147565b506044850151612138565b506001600160a01b038281167f00000000000000000000000000000000000000000000000000000000000000009091161415611c83565b604051637d3b6e7960e11b81525f60048201526024810191909152909750602081604481875afa908115610391575f91612227575b50965f611c76565b612240915060203d602011610a05576109f78183610a92565b5f61221f565b61225f915060203d6020116103be576103b08183610a92565b5f611c4f565b916040519163a9059cbb60e01b5f5260018060a01b031660045260245260205f60448180865af160015f51148116156122c2575b604091909152156122a75750565b635274afe760e01b5f526001600160a01b031660045260245ffd5b60018115166122d8573d15833b15151616612299565b503d5f823e3d90fd5b909291928360041161012f57831161012f57600401916003190190565b909160608284031261012f5781356123158161011e565b9260208301359260408101359067ffffffffffffffff821161012f57019080601f8301121561012f578160206106cf9335910161191b565b9061238b61238361237c6123718560018060a01b03165f52600160205260405f2090565b936060810190611a4e565b80916122e1565b8101906122fe565b80516001600160a01b03909316945f9390929015908161258b575b5061252657835494600886901c6001600160a01b0316819003612507577f00000000000000000000000000000000000000000000000000000000000000006001600160a01b0316146124e9576004815110156124dd575b5061240a610e0482612669565b801561249d575b61245b5761242b6106cf9461076f612439946001946126cc565b92015465ffffffffffff1690565b60a01b65ffffffffffff60a01b1660d09190911b6001600160d01b0319161790565b5050612478600161242b6106cf9465ffffffffffff9060a81c1690565b60a01b65ffffffffffff60a01b1660d09190911b6001600160d01b0319161760011790565b506124d8610e04610fbb846124c28560018060a01b03165f52600260205260405f2090565b9063ffffffff60e01b165f5260205260405f2090565b612411565b6020015191505f6123fd565b505050612439600161242b6106cf9465ffffffffffff9060a81c1690565b50505050612478600161242b6106cf9465ffffffffffff9060a81c1690565b50825493509050600883901c6001600160a01b031615801590612579575b61255d57600161242b6106cf9461076f6124399461269d565b50612478600161242b6106cf9465ffffffffffff9060a81c1690565b50612586610e0482612669565b612544565b905015155f6123a6565b81519190604183036125c5576125be9250602082015190606060408401519301515f1a9061270e565b9192909190565b50505f9160029190565b600411156125d957565b634e487b7160e01b5f52602160045260245ffd5b6125f6816125cf565b806125ff575050565b612608816125cf565b6001810361261f5763f645eedf60e01b5f5260045ffd5b612628816125cf565b60028103612643575063fce698f760e01b5f5260045260245ffd5b8061264f6003926125cf565b146126575750565b6335e2f38360e21b5f5260045260245ffd5b6001600160a01b0381165f9081526003602052604090205460ff16908161268e575090565b612698915061199a565b151590565b60018060a01b03166bffffffffffffffffffffffff60a01b5f5c16175f5d5f805c63ffffffff60a01b1916905d565b60018060a01b03166bffffffffffffffffffffffff60a01b5f5c16175f5d63ffffffff60a01b60409190911c165f805c63ffffffff60a01b191691909117905d565b91907f7fffffffffffffffffffffffffffffff5d576e7357a4501ddfe92f46681b20a08411612785579160209360809260ff5f9560405194855216868401526040830152606082015282805260015afa15610391575f516001600160a01b0381161561277b57905f905f90565b505f906001905f90565b5050505f916003919056fea26469706673582212204c91ec99124cbc8aa61d16155fa137663b8b903bed2dbb00fcd4c778b4f459c164736f6c63430008210033a2646970667358221220a83808d6aed98ec4a044f9651dd70482ffa5495fc7537158c032c6017e0e600b64736f6c63430008210033",
    "linkReferences": {}
  },
  "methodIdentifiers": {
    "deployWallet()": "53535db9",
    "owner()": "8da5cb5b",
    "pause()": "8456cb59",
    "paused()": "5c975abb",
    "renounceOwnership()": "715018a6",
    "transferOwnership(address)": "f2fde38b",
    "unpause()": "3f4ba83a"
  },
  "id": 76
}